:0200000480007A
:100000006F00000B1300000013000000130000003D
:100010001300000013000000130000001300000094
:10002000232E11FE232C51FE232A61FE232871FE6C
:100030002326A1FE2324B1FE2322C1FE2320D1FECC
:10004000232EE1FC232CF1FC232A01FD232811FDA2
:100050002326C1FD2324D1FD2322E1FD2320F1FD30
:10006000130101FCEF10D0368320C10383228103EA
:1000700003234103832301030325C1028325810256
:1000800003264102832601020327C1018327810140
:100090000328410183280101032EC100832E810022
:1000A000032F4100832F010013010104730020304E
:1000B000938101003701028013858180971501002B
:1000C000938545556358B500232005001305450069
:1000D000E34CB5FE37150000130505887310453055
:1000E000372500001305858073100530EFD0D01D33
:1000F000130101E6232C811813040500232A91180B
:10010000130501009384050093050400232631198B
:10011000232E7117232E1118232821192324411966
:100120002322511923206119232C811793090600DA
:10013000938B0600EF808063631C051663880410B0
:1001400037FB0080B71A0180371A018013041000B2
:1001500037190180130B0BFF938A0A4A130A8AC4CA
:1001600037EC00809305010513050100EF8040770F
:10017000631C05028347A106638807028347C10504
:1001800093F76700E39007FE634694000325C98355
:10019000634435071304140093050105130501009A
:1001A000EF800074E30805FC13050100EF80407048
:1001B00037E5008023A08B0093050400130585C656
:1001C000EF208027130500008320C1190324811923
:1001D00083244119032901198329C118032A81188D
:1001E000832A4118032B0118832BC117032C811775
:1001F0001301011A67800000131585009305A106FD
:10020000130600103305AB00EF20807C8327C983E1
:100210008346C1059305A106139727003386EA009C
:1002200093F606012320D600832601053307EA0052
:100230009387170013058CD02320D700232EF98233
:1002400013041400EF20401F6FF01FF5E35A30EF46
:100250008347140013060010638C0702B7E5008083
:1002600037F50080938545C6130505FFEF204076DE
:10027000B71701801307100023A0E74A3717018042
:100280008327C78393871700232EF7826FF05FEBD6
:10029000B7E5008037F500809385C5C4130505FFD9
:1002A000EF200073B717018023A0074A6FF01FFDEE
:1002B0001305F0FF6FF05FF113010198B7E50080BF
:1002C000130610009385C5C713050100232C816612
:1002D000232E1166232A916623282167232631675E
:1002E000232441672322516723206167232E7165F0
:1002F000232C8165EF700013130410006310050CAC
:10030000B7E9008037E90080B7EA008037EB00806A
:10031000130C100037FA008013060100930500400B
:1003200013050125EF90C044630005101305012556
:10033000EF2040768347050013040500E38E07FC99
:10034000138757FC1377F70DE30807FC13073002F8
:10035000E384E7FC9305D003EF20006A93040500D3
:10036000630805042300050013050400EF208072D4
:100370001304050013851400EF20C0711306050057
:1003800093050400930405001385C9C8EF20C00A33
:10039000930509CA13050400EF20403F631A0504C2
:1003A00013850400EF2080762328AAB6E346A0F642
:1003B0001305010013042000EF70507713050400AB
:1003C0008320C16703248167832441670329016770
:1003D0008329C166032A8166832A4166032B01664D
:1003E000832BC165032C81651301016867800000C0
:1003F00093858ACA13050400EF204039E31E05F0F7
:1004000093058BCB13850400EF20403B6316050258
:10041000130601009305004013050125238481C7BD
:10042000EF900035E31405F01305010013040000FC
:10043000EF70D06F6FF09FF8238401C66FF0DFED8F
:10044000130101FF232291009305B00193040500DD
:100450001305000023248100232611001304000249
:10046000EF10C0791304F4FF13050002EF10C07DF4
:10047000E31A04FE130520009305B001EF10007885
:10048000032481008320C1001385040083244100DC
:10049000130101016F105007B7776176130101B6A0
:1004A0009387F7322322F100B7772F0023282149C1
:1004B0009305000093875736130905001306201093
:1004C0001305C100232E1148232C8148232A91486B
:1004D000232631492324F100EF20802493050111C4
:1004E00013054100EF800049630805001305410032
:1004F000EF8010266310050C371401809305C44F5C
:1005000013054100EF20C03E37E500809305C44F3E
:10051000130505CFEF10507213061000930541002C
:1005200013050123EF601070130405006312050A20
:10053000B70470009309F03F631E09006F000003C9
:100540008327010063F4F9023304F400B384F40058
:10055000637E240193850400930601001306004086
:1005600013050123EF70803BE30C05FCB7170180F6
:1005700013071000130501232382E7C4EF70105BFB
:1005800037E5008093050400130545D3EF10D06ACA
:100590008320C14903248149B707000223A007082B
:1005A00083244149032901498329C1481301014A90
:1005B0006780000037E50080130505CCEFF05FE8A9
:1005C00037E50080130585CDEF1010676FF05FFCF5
:1005D00037E50080B7170180130710001305C5D059
:1005E0002382E7C4EF1050656FF09FFAB77761760A
:1005F000130101C99387F7322322F100B7772F0047
:100600009387573623229136130620109305000056
:10061000930405001305C1002324F100232611369D
:100620002324813623202137EF20800F37E50080F7
:10063000130585D437040002EF10106083270408E7
:10064000638E070C37E50080130545D7EF10D05EA9
:10065000371901809305C94F232004081305410071
:10066000EF2000291306A000930541001305011196
:10067000EF60505B6314050637E5008013860400C5
:100680009305C94F130505DAEF10105B93060100BF
:1006900013860400B705700013050111EF700054B4
:1006A0006318050083270100130400006382F4022D
:1006B00037E50080130545DCEFF09FD88325010066
:1006C00037E50080130545DDEF10105713042000B7
:1006D00013050111EF7090456F00C00137E40080F1
:1006E000130584D8EFF0DFD5130584D8EF10D0546C
:1006F0001304200037E500801305C5DEEF10D0534A
:10070000130504008320C136032481368324413637
:1007100003290136130101376780000037E50080A7
:100720001305C5D5EF105051130410006FF09FFC56
:10073000130101F923248106232291062320210796
:10074000232E3105232C4105232A5105232481051D
:100750002322910593040500232611062328610511
:10076000232671052320A105232EB103938C0500B8
:10077000EF20402D93098100930A0500138904009E
:10078000130C000013040000130A90011305090064
:100790009305A000EF204026B30725411307A000D2
:1007A000630E051A130C1C006354FA009307A00192
:1007B00023A0F9006354F400138407001309150003
:1007C00093894900E314ECFC130D2400135D1D40D4
:1007D00093090001B389A94133043401130B2400A8
:1007E000930D4001930B2001930A800013890A00A6
:1007F000938B1B00130A14001384090063D8690348
:100800009305090013050400EF10403F630E340BFD
:10081000630C8A0A6304590B63822B0B13050002D5
:10082000EF10804213041400E31C64FD1309190047
:10083000E344B9FDB30950419307100113891A002D
:1008400093992900B30A5C01338DA741130A000173
:100850001304A000638C0C0493172900B38737019D
:1008600013078100B307F70003A5C7FF930509002D
:10087000135515403305AA40EF10403803C5040056
:10088000630C8500630A050093841400EF10C03BDD
:1008900003C50400E31885FE938414009307190030
:1008A00063882A0513890700E3980CFA9305090069
:1008B00013050D00EF1080346FF05FFC1305D002BC
:1008C000EF1080386FF01FF6630E5901638C2B0117
:1008D00063043401E31244F51305C007EF10C0367A
:1008E0006FF05FF41305B002EF1000366FF09FF366
:1008F0001305C012EF10D038930541001305010015
:10090000EF10D0398327010003274100B3E7E70048
:1009100093F71710E38207FE1305C012EF1050364D
:100920008320C1060324810683244106032901068E
:100930008329C105032A8105832A4105032B01056B
:10094000832BC104032C8104832C4104032D010457
:10095000832DC1031301010767800000B38A54018E
:1009600033892A419307900163CE270593172C0002
:1009700013070103B307F70023AC27FD6340890485
:1009800093073C0093D71740930AE000130C1C0018
:10099000B38AFA40B30B5C01130D2900938D2B0031
:1009A000135D1D40E3D8BAE993090001B389A94159
:1009B00033043901130B24006FF05FE313090400C3
:1009C0006FF01FFC93172C00130701031309A001FC
:1009D000B307F70023AC27FDE35489FA6FF01FFE3D
:1009E000130101DA232C812437E400801306B000C0
:1009F0009305C4C713050100232E1124EF60902234
:100A00006316050837E5008093050100130505E12D
:100A1000EF805067634E050AB7F7008003A707B75A
:100A20009307100093050100630CF70837E5008079
:100A3000130505E3EF80106537E50080930501009D
:100A4000130545E3EF80106483C781C69305010059
:100A50006380070637E50080130545E4EF80906268
:100A600013050100EF70900C1305C4C71306200096
:100A700093052000EF8050348320C1250324812575
:100A800013050000130101266780000037E5008090
:100A9000130505E093051000EFF09FC98320C125E1
:100AA000032481251305100013010126678000002F
:100AB00037E500801305C5E4EF80D05C6FF05FFA86
:100AC00037E500801305C5E2EF80D05B6FF0DFF6FD
:100AD00037E50080930510001305C5E1EFF05FC511
:100AE0006FF01FF8130101FE232A91002328210132
:100AF000232631019304050093090600138905009C
:100B0000138605009305050037E500802324410185
:100B1000130545E5138A060093860900232C8100FE
:100B2000232E1100EF105011B717018023AE07825A
:100B30001304B000EF20C0401304F4FF6306050265
:100B4000E31A04FE8320C1010324810183244101AF
:100B5000032901018329C100032A810013053006FE
:100B60001301010267800000032481018320C10179
:100B700093060A0013860900032A81008329C10015
:100B80009305090013850400032901018324410111
:100B9000130101026FF0CFD537E50080130101FB8F
:100BA000130545E72322910423202105232E310339
:100BB000232C4103232A5103232861032326710395
:100BC00023248103232291032320A103232611043C
:100BD00023248104232EB10123260100B7EC0080D9
:100BE000EF10500337EC0080B7EB0080B7F40080C3
:100BF00037EB0080B7EA008037ED008037EA0080ED
:100C0000B7E9008013041000B7ED0080EF10007802
:100C10009305A00013058000EF00507E13850CE8BB
:100C2000EF10800E9305C00013052000EF00107D2B
:100C30001305CCC4EF10400D9305E0001305200010
:100C4000EF00D07B13850BE9EF10000C9305E0005B
:100C500013050001EF00907A83A704B7638487121D
:100C600013050DEBEF10400A9305F000130520006B
:100C7000EF00D07813050BECEF100009930500018D
:100C800013052000EF0090771385CAECEF10C00722
:100C90009305000113050001EF005076B70700022D
:100CA00083A70709638A070C138589EDEF10C00538
:100CB0009305F00013050001EF00507483C781C64F
:100CC0006386070A1305CAEDEF1000041305C0126E
:100CD000EF10007B83A704B71306C10093055000F3
:100CE0001305C0009306C000638487009306400884
:100CF000EF10C07CE31085FE8327C100638A0702E2
:100D0000E38A87FC13072000638EE70A130730008D
:100D10006382E708130740006394E708370700027F
:100D20008327070993B717002328F7086F004007A8
:100D30008320C10403248104832441040329010482
:100D40008329C103032A8103832A4103032B01035F
:100D5000832BC102032C8102832C4102032D01024B
:100D6000832DC1011301010567800000138589ED02
:100D7000EF0090796FF09FF51305CAEDEF00D07882
:100D80006FF01FF3B7E70080138507EAEF00D07715
:100D90006FF09FED83C781C693C717002384F1C608
:100DA00013850DEEEFF0CFE9EFF09FC3E30005E60A
:100DB00037E5008093051000130545EFEFF05F97CE
:100DC0006FF05FE403A704B76306870023A884B627
:100DD0006FF01FFD23A8F4B66FF09FFC130101F91B
:100DE000232EB103930D060013D6F541232481066B
:100DF0002322910623202107232E3105232C410590
:100E0000232A51052328610523261106232671056F
:100E100023248105232291052320A1059384050025
:100E2000130B05001389060013040700938A0700BB
:100E3000130A080093890800EF7000546302050448
:100E4000130510008320C106032481068324410674
:100E5000032901068329C105032A8105832A410547
:100E6000032B0105832BC104032C8104832C410433
:100E7000032D0104832DC1031301010767800000C6
:100E80009306C102130600049305040013050B002A
:100E9000EF60D0280327C10293070004E312F7FA9A
:100EA0000348C4018348E4018346D4010347F401A5
:100EB000034BD4038347C403834C74011318880085
:100EC0009398880037E500803308D800B388E8009D
:100ED00013058505131B8B00232E0101232C110103
:100EE000330BFB00130D0040034C5401834B840172
:100EF000EFF00FD5331D9D0137E5008093050D0000
:100F0000130505F1EF100044832881010328C10176
:100F1000B70601009386F6FF3326BD011387FCFF59
:100F2000B307180113371700B387D74013461600CD
:100F30003306E60093B717003306F60013070400E4
:100F400013055401930610009305F005834707002D
:100F500013071700938707FE93F7F70FB3B7F50052
:100F60009387F7FFB3F6F600E312E5FE330DD600E4
:100F700037E5008093870B002322A1012320610124
:100F800013870C0093060C001306090093850400D8
:100F9000130585F1EF10404A9307D000E3C297EBA9
:100FA00093077000E3CE77E9E30C0DE8B787000004
:100FB000E348FBE86310090493773C00638607006D
:100FC00093073005E31EFCE623A08A0183476401F2
:100FD000130500002320FA008327010723A09901AD
:100FE00023A077010347A4018327410723A0E7003B
:100FF0006FF05FE5930710006306F9009307200088
:10100000E310F9E493773C00E39C27E36FF0DFFB08
:10101000130101C623263139B719018083C709841A
:10102000232E1138232C8138232A91382328213963
:10103000639A070A371401808347E45F6394070AC1
:1010400037E500801305C5F7EF10003FB7E40080D7
:10105000930501011385C4FEEF70D0116312050AD8
:10106000130610009385C4FE13050113EF60803B47
:101070006312050C13054000EF10806137190180E1
:101080009306C1001306004093054984130501131C
:10109000EF60D008631A05028327C1006386070248
:1010A000930449841304000003A5040013044400BE
:1010B00093844400EF10805E8327C100E366F4FE52
:1010C00013070040E38EE7FA13050113EF700026C3
:1010D00037E50080930710001305C5FF2380F984CE
:1010E000EF1080358320C1390324813983244139AD
:1010F000032901398329C1381301013A67800000AF
:1011000037E5008093051000130545F9EFF04FE235
:1011100093071000230FF45E8320C1390324813923
:1011200083244139032901398329C1381301013A44
:101130006780000037E5008093051000130505FE69
:10114000EFF00FDF8320C139032481398324413933
:10115000032901398329C1381301013A678000004E
:10116000130101D5B71501802324812A130610002D
:10117000130405009385050A130501022326112A8D
:101180002322912A2320212B232E3129232C41296C
:10119000232A5129232861292326712923248129DF
:1011A000232291292320A129232EB127EF60802714
:1011B00063120532B717018013142400938787C484
:1011C000B38787001305100083AC0700EF10404C75
:1011D000B7170180930500001306000013050102F4
:1011E00023880782EF704019130405006316053049
:1011F000B714018093D7AC00B70B0100375C000037
:1012000023AC04822326F10013090000371B018060
:10121000938BFBFF130CFC659306C1011306004082
:1012200093054B8413050102EF60406F930A05009C
:101230006314050C8327C10163880720374A5F5672
:10124000B7090001930D4B84130D0000130AFA65D2
:101250009389F9FF6F00C003374650521306565466
:101260006388CC1C37564153130666C46386CC187A
:101270003756414D130636256394CC0013043000D5
:101280008326C101130D4D00938D4D00637CDD0459
:1012900083AC0D0013850C00EF10404003A684833F
:1012A000E31006FEE30A04FA130610006308C412F2
:1012B000130620006306C41433F67C01630686011E
:1012C00013040000E39E4CFB9306300023ACD48251
:1012D0008326C101130D4D0013040000938D4D00B2
:1012E000E368DDFA3309D900B37779016382071621
:1012F00093070040E382F6F237E50080930509008A
:101300001305C503EF10401313052000EF104038FC
:1013100083A7848337E500801305C5051389F7FF8C
:10132000133939003309204137840000EF10C01011
:101330001304F4FF13050900EF104036E31A04FE0E
:1013400083A5848337E5008013054509EF10C00E9F
:1013500013053000EF10C03303A58483EF10003471
:1013600083A78483639A0710EFF09FCA37E5008054
:101370001305C50DEFF0CF8C9307100037170180D0
:10138000130500002308F782EF0090081305000002
:10139000EF10003013050102EF6050798320C12A5D
:1013A0000324812A13850A008324412A0329012A60
:1013B0008329C129032A8129832A4129032B012951
:1013C000832BC128032C8128832C4128032D01283D
:1013D000832DC1271301012B6780000037565F560C
:1013E0001306F6D413040000E39CCCE893064000F7
:1013F00023ACD4826FF0DFE8130420006FF05FE8C5
:1014000037665600B3F53C01130686F46386C502C1
:1014100037363132130686546380CC0237364D5F3F
:10142000130686146382CC0A130400006FF05FE594
:10143000130410006FF0DFE49306100023ACD48295
:10144000130400006FF0DFE3B3777901E39607EA56
:10145000B7E7008013858705EFE09FFE0326C100F4
:10146000B7E700809355A90013854703EF00906DFF
:101470008326C1016FF0DFE7130720006386E706CC
:10148000130740006384E708B707010023AEF1C6E5
:1014900037060100B715018037E500809385C54FF9
:1014A0001305450BEF00507983C781C637170180BC
:1014B000230207C403A5C1C7E38807EAE30605EAD8
:1014C000EFE09FFD6FF05FEA23AC8482130400001D
:1014D0006FF01FDB930A050037E500801305050157
:1014E000EFE01FF66FF09FEBB707020023AEF1C6E7
:1014F000370602006FF01FFA37E50080130545023A
:10150000EFE01FF4930A04006FF05FE8B7270000D4
:1015100023AEF1C6372600006FF0DFF7130101FE9E
:10152000232A9100B7150180B714018023263101C9
:101530001306004093090500938505CA1385040A24
:10154000232E1100232C810023282101EF10404875
:10155000B7E50080130600409385450E1385040A05
:10156000EF10C03DB7F70080938707FF1394890001
:101570003304F40093050400130600401385040AA5
:10158000EF10C03B37E500801305850EEF00D06AF1
:10159000B7E500809385850F13050400EF10002C3C
:1015A000630C0506B30485403719018013860400D7
:1015B000930504001305C94FEF1080411305C94F6F
:1015C000B7E500809385451133059500EF10803E07
:1015D000EF10101763120502032481018320C1015B
:1015E0008324410103290101138509008329C100D6
:1015F000130101026FF0DFB68320C10103248101D2
:1016000083244101032901018329C1001305300608
:10161000130101026780000037E500801305051003
:10162000EFE01FE28320C1010324810183244101F3
:10163000032901018329C1001305100013010102D0
:1016400067800000130101FA232E710337F7008031
:10165000B71B01802326310523206105232A91032E
:101660002328A103930607FF232E1104232C8104B2
:10167000232A9104232821052324410523225105EF
:10168000232C81032326B10393870BCA1307F0028F
:10169000371B01802326D100930C0500232E010067
:1016A0002380E700A38007009309000023220100A4
:1016B000138D06E0130B0B4AEF00504D83274100BA
:1016C000930681011306600133843701131424004B
:1016D00033043441131414009305040013850BCA1A
:1016E000EFF04FC0930405006310051E0325810130
:1016F000930560019384190013055501232491007B
:10170000EFC0802CB7E70080930A05001385C7114E
:10171000EFE01FD337E500809385040013860A00AD
:1017200013054512EF001042B714018083A7C4834C
:101730000327C1016346F7009387F7FF232EF100CB
:10174000130C20001304E4FF37EA00801309800122
:101750006F00C000130C1C0063062C0593050C00E1
:1017600013052000EF00804903278101B30D840198
:10177000E3D2EDFE13158C003305AD00EF00C05829
:1017800013172C0033076701E3860DFC832787FFBF
:10179000E38207FC13054A0E130C1C00EF00C05631
:1017A000E31E2CFB1305C012EF00904D37F90080AB
:1017B00013041000130A3000938AFAFF37EC0080FC
:1017C000832709B71306C1011305200083A5C4832D
:1017D0009306C0006384870093064008EF00104E14
:1017E000930D050013072000630A8502630EE500D0
:1017F000E31845FDE38609FC9389F9FF93971900E7
:101800002322F1006FF05FEBE3DC59FB83298100B9
:10181000939719002322F1006FF01FEA93054C0EF5
:1018200013850BCAEF0090760327C101931627009A
:101830003306DB00B3663701B3E6A60013050700E5
:101840006384060A832706006392070223A0EC0044
:10185000EFF0DFCCE30605F637E5008093051000D6
:101860001305C512EFE0DFEC6FF01FE5931787005B
:101870000327C1009306E002B307F70003C7070080
:101880006316D70083C717006380E70A130600407A
:1018900093054C0E13850BCAEF10400A8325C10136
:1018A0008327C100130600409395850013850BCA5A
:1018B000B385B700EF108008232E010093090000C4
:1018C000232201006FF05FDF37E500801305C513A9
:1018D000EFE01FB737E50080938504001305451539
:1018E000EF005026930DF0FF8320C10503248105EE
:1018F00013850D0083244105032901058329C104B3
:10190000032A8104832A4104032B0104832BC1038E
:10191000032C8103832C4103032D0103832DC1027A
:1019200013010106678000009305F00213850BCABE
:10193000EF10400FE30205F8230005006FF0DFF71A
:1019400083C781C637170180230207C46384070059
:101950006394050067800000138505006FE0DFB326
:1019600083C781C6638E0700B717018083C747C44A
:101970006388070063860500138505006FE01FC7B5
:101980001305100067800000B717018083C7078325
:10199000638C0706B717018083A5878363860506D6
:1019A000130101FF2322910023261100232481002B
:1019B0002320210193072000B7040200638AF50069
:1019C00093074000B72400006384F500B7040100CA
:1019D000B70700023719018003A4070503274983CD
:1019E000B72700009387F7703307E44063E0E7020E
:1019F0008320C100032481008324410003290100C6
:101A000013010101678000006780000037E5008056
:101A10001386040013058515EF00102283C781C6C5
:101A200063840704B717018083C747C4638E070226
:101A300013850400EFE09FBBB7040180631C05021F
:101A400023A8845E93070400639A0702232A8982ED
:101A50008320C10003248100832441000329010065
:101A60001301010167800000B704018083A7045FB0
:101A70006FF09FFD83A7045F6FF01FFD37E50080C7
:101A800013058505EFE0DF9B03A5045F9305803E0A
:101A90003305A440EFB050739305050037E500808F
:101AA00013058517EF00100AB717018003D5C75F2C
:101AB00093054000EF0000386FF05FF963060510F2
:101AC00013070000930700006354B0088347050024
:101AD000B788FFFF9306100093F7170013038000E9
:101AE0009388580013D7F70093971700131807012E
:101AF000139607011358080113560601638A05045B
:101B000083470500B3D7D74093F71700B3E7C70063
:101B10009386160033C717016398660013051500F6
:101B20009385F5FF93060000E30E08FA931707016B
:101B300093D7070113D7F7009397170013180701DE
:101B4000139607011358080113560601E39A05FA84
:101B5000B785FFFF93060001938555001317070112
:101B60009397070193D70701135707019386F6FF51
:101B700033C6B700630607009317060193D7070122
:101B80006388060013D7F700939717006FF01FFDC7
:101B9000930500011306100013050000B78600002E
:101BA00033F7D7009385F5FF3368A6006306070077
:101BB000131508011355050193D616401316160088
:101BC000E39005FE678000001305000067800000B9
:101BD00037E50080130101FF1305052423261100BA
:101BE000EF0090058320C100B70700021307100023
:101BF00023A0E70A1301010167800000B7170180E5
:101C000023A4A760B717018023A0B76067800000F6
:101C1000B7070002630C05003707000123A0E700A7
:101C2000B717018023A2A7606780000023A0F700F8
:101C3000B717018023A2A76067800000B717018053
:101C400003A5476067800000B717018003A787607E
:101C50009306F00163E2E604B716018083A60660EE
:101C60001306B001636AD602131607019396860025
:101C7000B306D600B386A600370600022320D6009E
:101C8000930605FE1306F0056368D60013071700D8
:101C900023A4E760678000001307A0006304E50049
:101CA00067800000B716018003A7066013062000B6
:101CB00023A4C7609307170023A0F6606780000085
:101CC000130101FF232481002326110013040500C2
:101CD00063800502B707000223AAA7008320C10082
:101CE0001305040003248100130101016780000033
:101CF000EFF09FF5130504008320C1000324810049
:101D00001301010167800000130101FF23248100FA
:101D1000232611001304050003450500630A05008E
:101D200013041400EFF05FF203450400E31A05FE0C
:101D30008320C10003248100130500001301010169
:101D400067800000130101FF232481002326110076
:101D5000130405000345050063880502630C0500B4
:101D6000B70700021304140023AAA70003450400C8
:101D7000E31A05FE8320C10003248100130500003F
:101D80001301010167800000E30605FE130414003F
:101D9000EFF09FEB034504006FF01FFF130101FEFE
:101DA0009385F5FF232C8100232E1100232A910017
:101DB000232821012326310123244101232251011B
:101DC0001394250063460404B7E900801309060054
:101DD00093040500130AC0FF9389C925B70A0002BE
:101DE0006F00000123AAAA001304C4FF6302440386
:101DF000B3D7840093F7F700B387F90003C5070052
:101E0000E31209FE1304C4FFEFF01FE4E31244FFE2
:101E10008320C1010324810183244101032901019D
:101E20008329C100032A8100832A41001301010292
:101E300067800000130101FE9385F5FF232C8100CC
:101E4000232E1100232A910023282101232631016A
:101E5000139425006348040237E9008093040500C9
:101E60009309C0FF1309C925B3D7840093F7F7007E
:101E7000B307F90003C507001304C4FFEFF0DFDC6C
:101E8000E31434FF8320C101032481018324410131
:101E9000032901018329C1001301010267800000A9
:101EA0009385F5FF9395250063C8050237E7008009
:101EB0001306C0FF1307C725B7060002B357B500C6
:101EC00093F7F700B307F70083C707009385C5FFB3
:101ED00023AAF600E394C5FE67800000130101FE0B
:101EE000232A9100B7E40080232C810023282101BC
:101EF000232631012324410123225101232E1100E5
:101F0000130A0500938905001304C0019384C425B6
:101F1000B70A00021309C0FF6F00000123AAAA003C
:101F20001304C4FF63022403B3578A0093F7F70036
:101F3000B387F40003C50700E39209FE1304C4FF4E
:101F4000EFF09FD0E31224FF8320C101032481011D
:101F500083244101032901018329C100032A81004F
:101F6000832A41001301010267800000130101FE72
:101F7000232A9100B7E40080232C8100232821012B
:101F800023263101232E1100930905001304C001FB
:101F90009384C4251309C0FFB3D7890093F7F700D2
:101FA000B387F40003C507001304C4FFEFF0DFC9D3
:101FB000E31424FF8320C101032481018324410110
:101FC000032901018329C100130101026780000078
:101FD000B7E600801307C0019386C625B705000247
:101FE0001306C0FFB357E50093F7F700B387F60079
:101FF00083C707001307C7FF23AAF500E314C7FE32
:1020000067800000130101EE232A9110232631116D
:10201000232E1110232C8110232821119304050055
:1020200093890500635C050063820508B707000219
:102030001307D00223AAE700B3049040130901005C
:10204000130409006F000002EFB0502013041400C5
:10205000A30FA4FE9305A00013850400EFB0D016D3
:10206000930405009305A00013850400E39E04FC7F
:10207000E30C24FDB70400021304F4FF034504003D
:1020800013050503638A090223AAA400E31624FFAB
:102090008320C111032481118324411103290111DB
:1020A0008329C11013010112678000001305D002BB
:1020B000EFF09FB96FF05FF8EFF01FB9E31E24FB5C
:1020C0006FF01FFD930500006FF0DFF39305100024
:1020D0006FF05FF3130101FB232481042326110415
:1020E0002322910423202105232E3103232C410395
:1020F000232A510323286103232671032324810308
:10210000232291032320A103232EB10113040500F0
:10211000034505006306050837EB008013890500B9
:1021200093090600930A5002370A0002930B300706
:10213000130C8007930C4006130BCB256F00000295
:102140006380090A93870400232AAA0093040400E9
:102150001384070003C514006304050493041400EA
:10216000E31055FF034514001304240063047509AC
:10217000630A850F630E950D93073006630EF50A0B
:1021800093072006630CF512930770076302F51698
:10219000638C0910232AAA0003C51400E31005FC70
:1021A0008320C104032481048324410403290104FE
:1021B0008329C103032A8103832A4103032B0103DB
:1021C000832BC102032C8102832C4102032D0102C7
:1021D000832DC10113050000130101056780000074
:1021E000EFF09FA693870400930404001384070074
:1021F0006FF05FF6130D4900032909006386090299
:1022000083470900638A070013091900232AFA008B
:1022100083470900E39A07FE13090D006FF09FF34F
:1022200013091900EFF05FA203450900E31A05FE48
:1022300013090D006FF01FF2130D4900032509006B
:1022400063880906232AAA0013090D006FF09FF086
:10225000032509009385090013094900EFF09FDA6F
:102260006FF05FEF03270900130DC0011309490048
:10227000930DC0FF6F000001232AAA00130DCDFFAC
:10228000E30ABDEDB357A70193F7F700B307FB00CF
:1022900003C50700E39209FE2326E100EFF0DF9A71
:1022A0000327C1006FF09FFDEFF01F9A6FF09FEAC8
:1022B000EFF09F9913090D006FF0DFE98327090004
:1022C0001309490013D747001377F70093F7F70076
:1022D0003307EB00B307FB000345070003CD0700FE
:1022E000638A0904232AAA00232AAA016FF09FE621
:1022F00003270900130DC00013094900930DC0FF07
:102300006F000001232AAA00130DCDFFE304BDE5F1
:10231000B357A70193F7F700B307FB0003C5070006
:10232000E39209FE2326E100EFF01F920327C1008C
:102330006FF09FFDEFF05F9113050D00EFF0DF9060
:102340006FF05FE1130101FC130341022322B1028C
:102350002324C1029305030013060000232E11005D
:102360002326D1022328E102232AF102232C010390
:10237000232E110323266100EFF0DFD58320C10156
:10238000130500001301010467800000130101FE22
:10239000232A9100232821012326310123244101EE
:1023A000232E1100232C810093040000371A018092
:1023B000B71901801309C00123240A6023A0996082
:1023C000130400021304F4FF13050002EFF0DF878B
:1023D000E31A04FE93841400E39024FF8320C101D8
:1023E0000324810183244101032901018329C100C0
:1023F000032A81001301010267800000B707000271
:1024000023A8A70067800000B707000223AAA7003F
:102410006780000083470500638C070037070002D0
:1024200013051500232AF70083470500E39A07FEEA
:102430001305000067800000130101FC1303410233
:102440002322B1022324C1029305030013061000C6
:10245000232E11002326D1022328E102232AF10290
:10246000232C0103232E110323266100EFF09FC6C6
:102470008320C101130500001301010467800000DF
:10248000B707000283A60705370700028327070561
:10249000B387D740E3ECA7FE67800000B7070002D0
:1024A00083A7070413970701135707012320E500AB
:1024B00093D7070123A0F50067800000130101FDF9
:1024C000232021030329060023229102232C41010A
:1024D000232861012326110223248102232E3101A6
:1024E000232A51012326710193040600130A0500D3
:1024F000138B05006340090C635EB90AB70700023D
:1025000003A40704B71A01809319040193D90901A0
:10251000935B04016382360D6380760DEFF0CFC6C6
:1025200083A74A60638A070E3364740193770401BA
:10253000638A070083A704006356F0009387F7FFC0
:1025400023A0F40093770402638C070083A70400A0
:10255000130BFBFF63D667019387170023A0F400DA
:102560009377040413053000639007021374040882
:1025700013052000631A0400B3E9790193F91910D7
:10258000130510006386090A8320C1020324810217
:1025900083244102032901028329C101032A810105
:1025A000832A4101032B0101832BC1001301010385
:1025B00067800000B707000203A4070423A00400FB
:1025C000130900009319040193D90901935B0401D5
:1025D000B71A0180E39236F583A74A6013B7170054
:1025E00063800704B707000223A0F700B7070002C3
:1025F00003A5070523A2EA60B70600021307B0127D
:1026000083A70605B387A740E37CF7FEEFF0CFB7BB
:1026100083A74A60E39A07F0130500006FF0DFF626
:10262000B7070002B706000123A0D7006FF01FFC18
:1026300083A70400B719018037140180B307FA009B
:102640001305E0032320F46023A40960EFF0CFDF3B
:1026500083A70400E38227FD33092A011305000242
:1026600023A4096023202461EFF00FDEB7070002E6
:1026700003A60705B70600021307300683A7060561
:10268000B387C740E37CF7FE130500006FF0DFEF70
:10269000B707000223A8A70267800000B70700025F
:1026A00023AAA7026780000033E7A500137737004D
:1026B0009307050063020702630E06003386C70016
:1026C0009385150003C7F5FF93871700A38FE7FED7
:1026D000E398C7FE678000009307300063FEC702DF
:1026E0009308C6FF93F8C8FF93884800B307150105
:1026F00093860500130705009386460003A8C6FFCE
:1027000013074700232E07FFE398E7FE13763600F2
:10271000B38515016FF05FFA930705006FF0DFF9DD
:1027200093F5F50F3307C50093070500630806000E
:102730002380B70093871700E39CE7FE67800000C3
:10274000630806028347050003C705003306C5007A
:10275000630AF7006F0040028347050003C70500C6
:10276000639CE7001305150093851500E316A6FE8C
:10277000130500006780000033B5E7003305A04073
:102780001375E5FF130515006780000083470500FA
:1027900003C70500638E0700639EE700130515005D
:1027A000834705009385150003C70500E39607FEE0
:1027B000930700003385E7406780000083470500EA
:1027C00003C7050013089001638E07021386F7FB09
:1027D000130515009308F7FB9385150093860700F2
:1027E0006364C80093860702130607006364180138
:1027F000130607026318D6008347050003C70500C8
:10280000E39607FC3385E7406780000003C80500B6
:102810006300080283470500638A0700630CF80021
:102820001305150083470500E39A07FE1305000012
:1028300067800000138705009307050093060800D2
:102840009387170003C6F7FF13071700E31AD6FC98
:1028500083460700E39606FE6780000003CE05006E
:1028600063020E0483470500638A07021307FEFB19
:1028700093069001930E0E0263E8E606130890019A
:102880001387F7FB6364E80093870702638EFE00FB
:102890001305150083470500E39407FE13050000A8
:1028A000678000006780000013860500930605001E
:1028B00093070E009386160003C7F6FF9388F7FB75
:1028C0001303F7FB6364680013070702130616007F
:1028D0006364180193870702E39CE7FA83470600C5
:1028E000E39A07FC67800000930E0E006FF01FF95B
:1028F0008347050063860702930705009387170047
:1029000003C70700E31C07FE9385150003C7F5FF07
:1029100093871700A38FE7FEE31807FE6780000088
:102920009385150003C7F5FF9307050093871700EC
:10293000A38FE7FEE31A07FC6FF05FFE83470500F5
:1029400063840706130715009307000013080700A8
:10295000130717008346F7FF93871700E39806FED7
:1029600083C60500638E0602630C06029387170078
:102970001306160013871500B307F500B385C500CD
:102980006F00C00093871700630CB700A38FD7FEBA
:10299000834607001388070013071700E39406FE19
:1029A000230008006780000013080500930700005B
:1029B0006FF01FFB930705009385150003C7F5FF14
:1029C00093871700A38FE7FEE31807FE67800000D8
:1029D0003306C500930705006F00400103C7F5FFEC
:1029E00093871700A38FE7FE630607009385150002
:1029F000E396C7FE6780000083470500638E0700EB
:102A00006396F5006F00C001638AB70013051500D7
:102A100083470500E39A07FE130500006780000066
:102A200067800000930705001305000003C7070037
:102A30006314B7001385070093871700E31807FE98
:102A4000678000008347050063800702930700004A
:102A5000938717003307F50003470700E31A07FEC3
:102A600013850700678000009307000013850700A7
:102A700067800000130775FF9307400063F8E700C5
:102A8000130505FE133515006780000013051000BF
:102A9000678000009306400013060002834705008C
:102AA000138777FF63F0E606638EC704638207042B
:102AB000930700006F00800093070700138717003B
:102AC000B306E50083C60600E39806FEB307F500EB
:102AD0001306400093050002637AF50003C7070060
:102AE000930677FF6378D6006306B700A3800700DC
:102AF000678000009387F7FFE312F5FEA3800700CD
:102B00006FF01FFF130515006FF05FF98347050095
:102B100013070002639CE7101307000093060002EE
:102B200013071700B307E50083C70700E38AD7FE42
:102B30009306D0026384D70C9306B002638CD70A45
:102B4000B307E50003C6070093079000130E1000BB
:102B5000930506FD93F6F50F63EED70C37D8CC0C32
:102B600093070000130390001308C8CC6F00800087
:102B70001387080093081700330615019396270062
:102B800003460600B387F60093971700B387F50056
:102B9000930506FD93F6F50F636AD3026340F804CC
:102BA000E39807FD9307700363EAC7023305E50066
:102BB00003472500B707008093C787FC130707FD6D
:102BC0001377F70FB307F600637AE3001307F0FFFC
:102BD0006308EE041385070067800000B7070080D4
:102BE0001307100093C7F7FFE306EEFEB707008058
:102BF0006FF05FFE130717006FF09FF413071700C5
:102C0000B307E50003C6070093079000130EF0FF1B
:102C1000930506FD93F6F50FE3F2D7F49307000052
:102C2000B307F0401385070067800000130700001A
:102C30006FF01FF0930700006FF0DFF9B707000295
:102C400023A0A70203A507021375F50F67800000F4
:102C5000B707000223A2A70203A54702678000006E
:102C6000B70700021307F00F23A0E70203A507022E
:102C70001375F50F67800000B70700021307F0FF18
:102C800023A2E70203A5470267800000B7070002FE
:102C900023A0A70203A707021307F00F23A0E70250
:102CA00003A507021375F50F678000001377350041
:102CB000930700006312070413073000635EB70236
:102CC0009387C5FF93D72700938617001396260096
:102CD000B70700023306C500938747021308F0FFC9
:102CE00023A0070103A7070013054500232EE5FED7
:102CF000E318C5FE9397260063D6B702B385F54067
:102D0000B7070002B305B500938707029306F00FDB
:102D100023A0D70003A7070013051500A30FE5FEA6
:102D2000E318B5FE678000001377350093070000B5
:102D3000631E070213073000635AB7029387C5FF6B
:102D400093D7270093861700139626003306C500F5
:102D5000B7070002032705001305450023A2E70279
:102D600003A74702E318C5FE9397260063D2B70274
:102D7000B385F540B305B500B7070002130515008C
:102D80000347F5FF23A0E70203A70702E318B5FEF8
:102D90006780000083A7C1C6639A07009307F5FE0A
:102DA00093F7F70F130700016376F70CB7070002DC
:102DB0001367050423A0E70293D6050113D7850105
:102DC00003A6070293F6F60F23A0E70213D78500A8
:102DD00003A607021377F70F23A0D70283A60702E3
:102DE00093F5F50F23A0E70203A7070223A0B7027C
:102DF00003A7070213078000630EE50813075009B5
:102E000023A0E7021307F00F83A6070223A0E7021F
:102E100083A7070293F7F70F6398E70CB706000242
:102E20001307501F938606029305F00F1306F00F49
:102E30006F0080006304070223A0C60083A706007A
:102E40001307F7FF93F7F70FE386B7FE1307A00307
:102E50006300E50A13078000630EE50437070002EC
:102E60009306F00F2320D7020327070213850700DC
:102E70006780000013071000B317F70037870100C1
:102E800013071708B3F7E700E38207F2939595005D
:102E90006FF0DFF11307700823A0E7021307F00FAC
:102EA00083A6070223A0E70283A7070293F7F70F81
:102EB000E386E7F613071000E392E7FA370700020C
:102EC0009306F00F2320D702032607022320D70200
:102ED000032607022320D702032607022320D70256
:102EE000032707026FF09FF71307A003E318E5F627
:102EF000E39607F6370700021306F00F2320C702F8
:102F0000832607021385070093D6660093F6160002
:102F100023A6D1C62320C702832607022320C70287
:102F2000832607022320C702032707029306F00F18
:102F3000370700022320D70203270702678000001B
:102F4000130101FF3707000223261100232481000B
:102F500023229100232021019307A00013070702D9
:102F60009306F00F2320D700032607009387F7FF6F
:102F7000E39A07FE9305000013050000EFF09FE1C0
:102F8000930405001304900013091000930500003A
:102F9000130500001304F4FF638C2403EFF09FDF9C
:102FA00093040500E31404FE37E5008013050527AC
:102FB000EFF08FC81305F0FF8320C10003248100C8
:102FC00083244100032901001301010167800000EF
:102FD000B70700021307F00F23A0E70283A607023A
:102FE00023A0E70283A707029305A01AB717018061
:102FF0001305800023A69760EFF0DFD9130490003B
:1030000013091000930705009305A01A130580000B
:103010001304F4FF6382270FEFF0DFD79307050057
:10302000E31404FE9305000013057003EFF09FD630
:10303000B705004013059002EFF0DFD593070500B8
:1030400013041000130920086F000002EFF09FD452
:10305000B705004013059002EFF0DFD3130414000E
:1030600093070500630E2409930500001305700300
:10307000E39E07FC37E50080930504001305852ACD
:10308000EFF08FBB93072000638CF40223A601C6E8
:103090009305000037E50080138604001305C52C56
:1030A000EFF08FB98320C100032481008324410005
:1030B00003290100130500001301010167800000CE
:1030C000930500001305A003EFF0DFCC9307050084
:1030D00013049000930500001305A0031304F4FFEC
:1030E00063880700EFF01FCB93070500E31404FE8D
:1030F00083A5C1C66FF01FFA930420006FF09FF202
:103100009305050037E5008013058528EFF0CFB261
:103110001305E0FF6FF05FEA130101FF23261100A2
:103120002324810023229100130405000345050098
:1031300093052000B7E40080EFE09FD613850430AC
:10314000EFF04FAD0345140093052000EFE05FD58D
:1031500037E500801305C52FEFF0CFAB0345E41F23
:1031600093052000EFE0DFD313850430EFF08FAA42
:103170000345F41F93052000EFE09FD20324810054
:103180008320C1008324410037E500801305050B2F
:10319000130101016FF00FA8630E0610130101FD6A
:1031A00023229102B714000023248102232021034B
:1031B000232E3101232C4101232A510123286101AF
:1031C000232671012324810123229101138B84384A
:1031D00023261102930B0500938A0500330AA600EB
:1031E00013040000370C0002930CF00F1309E00FDA
:1031F0009309F00F9384943893850B001305100105
:10320000938B1B00EFF01FB9631A050623209C0364
:1032100083270C0213070C0293F7F70F638227032F
:1032200063568B006F008005630A940423203701E6
:10323000832707001304140093F7F70FE39627FF83
:1032400013850A0093050020EFF05FA623209C035E
:1032500083270C0223209C0383270C0223209C033A
:1032600083270C0223209C0383270C02938A0A20C5
:10327000E3944BF9130510006F0080001305000064
:103280008320C10203248102832441020329010215
:103290008329C101032A8101832A4101032B0101F2
:1032A000832BC100032C8100832C410013010103F7
:1032B000678000001305000067800000130101FD16
:1032C000232021031309050037E50080232E310157
:1032D000232C41012326710193090600B71B00002E
:1032E000138A050013054530930509002324810244
:1032F00023229102232A51012328610123248101E1
:103300002322910123261102138B8B38EFF0CF92E9
:10331000B309390113040000370C0002930AE00FCF
:10332000930CF00F9304F00F938B9B3863063913C3
:103330009305090013058001EFF0DFA56312051264
:1033400023205C0383270C029305002013050A0049
:10335000EFF09F9D23209C0383270C0223209C03D6
:1033600083270C021305F00FEFF09F8F9376F50182
:103370001307500093070C026390E61023209C0370
:1033800003270C0223209C0303270C021377F70F5B
:103390006316070263568B006F00C007630C740747
:1033A00023A0970003A7070023A0970003A7070007
:1033B000130414001377F70FE30207FE23209C0386
:1033C00083270C0223209C0383270C0223209C03C9
:1033D00003270C0293070C02130400001377F70F66
:1033E000630607006F0040026306740323A0970082
:1033F00003A7070023A0970003A7070013041400E6
:103400001377F70FE30207FE13091900130A0A20C6
:103410006FF0DFF137E5008013054536EFF0CF811F
:10342000130500008320C10203248102832441028A
:10343000032901028329C101032A8101832A410151
:10344000032B0101832BC100032C8100832C41003D
:103450001301010367800000130510006FF09FFC4B
:103460009305050037E500801305C531EFE0DFFC6B
:10347000130500006FF01FFB9305050037E5008082
:1034800013050534EFE05FFB130500006FF09FF9B3
:103490006318050003A501C71335150067800000F8
:1034A0001305100067800000630605001305100077
:1034B00067800000130101FF23261100EFF05FA8D1
:1034C000631C05008320C1001307100023A8E1C678
:1034D000130101016780000037E5008013050538FE
:1034E000EFE09F828320C10023A801C613051000CE
:1034F0001301010167800000631C050283A701C757
:103500001305300063840702130101FF1305060051
:103510001386060023261100EFF01FC88320C10088
:10352000133515001301010167800000678000005A
:103530001305400067800000631C050283A701C7D4
:103540001305300063840702130101FF1305060011
:103550001386060023261100EFF05FD68320C100FA
:10356000133515001301010167800000678000001A
:103570001305400067800000631C050093072000CE
:10358000638CF5009385D5FF13B5150067800000A7
:1035900013054000678000001305002067800000CD
:1035A00083250500638C0502938705009306F001CF
:1035B0001306A0036F008000630EC70093871700F7
:1035C00003C7F7FFE3EAE6FE130700001305070051
:1035D00067800000138725006388E7001307F0FF6A
:1035E000130507006780000003C60500930600036B
:1035F0001307F0FFE31CD6FC2320F500130700009F
:103600006FF0DFFC6306050683270500130101FE4A
:10361000232C8100232E110013040500638C070066
:1036200003C70700630807008356450003D76700F8
:103630006380E60213059000930700008320C10118
:103640000324810123A0F50013010102678000001B
:1036500003C517002326B100EFF09FE31375150093
:103660008325C100E31805FC832704006FF01FFDCC
:10367000930700001305900023A0F5006780000069
:10368000130101FF23229100938405009305501B31
:10369000232481002326110013040600EF70404A02
:1036A0001307F00F930705006374A70413071000B6
:1036B00013050000636C87008320C1000324810090
:1036C00083244100130101016780000013D78700A4
:1036D0002380E400A380F4008320C1000324810040
:1036E00083244100130520001301010167800000BD
:1036F00013050000E38207FCE30004FC2380F400D0
:103700008320C1000324810083244100130510009D
:103710001301010167800000130101FD2320210333
:10372000232611022324810223229102232E310118
:10373000232C4101232A51012328610123267101F1
:103740002324810103290500238D05008327850398
:10375000638C071603470900930740001384050094
:10376000930905006300F7260327C5049307F0FFBC
:10377000130F00006308F7088326C900373A0000DA
:10378000130C0000930B000093040000930AF00F49
:10379000130A0A80130BF07FB387860183D70700D3
:1037A0009385A40113950B01338747011317070174
:1037B00033869A40B305B4003365F500135707010B
:1037C0006386070263940B006376EB1CEFF05FEBFC
:1037D000630C0500B384A4008326C900930B00008A
:1037E000130C2C006FF05FFB9304000093BB1B00D5
:1037F000B30B7041B3F47401B3049400238D04003F
:10380000034FA40183A5C903930700001307000019
:1038100093080002130E5000130390001308B00029
:10382000930FE00213071700B386E50083C6F6FF87
:10383000138517001396060113560601630C160133
:10384000630CC60B630E670AB307F400A386D700A8
:1038500093070500E31807FD3307F400A3060700EC
:10386000630E0F0A83C7B50093F7F7032306F4002E
:1038700083C7F50183C6E50103C7D5019397870088
:10388000B3E7D7009397870083C6C501B367F700F6
:1038900093978700B3E7F6002320F4002322040067
:1038A00083C7750103C7650193978700B3E7E700F6
:1038B0002315F40083C7950103C7850193978700FB
:1038C000B3E7E7002314F4008320C102032481023C
:1038D00083244102032901028329C101032A8101B2
:1038E000832A4101032B0101832BC100032C81009A
:1038F00013010103678000009306500EE31667F47E
:10390000B30EF40013862700E360F8F49307050074
:10391000A386FE01130506006FF01FF363820708FC
:103920008347D4001307E4009308800063840724CE
:10393000130530FF1308E00213039001330585409F
:103940006F000003636CD30083C6C50013860702B3
:10395000B3F6D800638406009377F60F2306F700CA
:10396000B306E500130717008347F7FF63800704DA
:1039700013960701135606019306F6FB939606016C
:1039800093D60601E31006FD9307E00293080001B9
:103990006FF0DFFC938B0700130C2C006FF0DFDF60
:1039A0009307F003230DF40093061000B306D40030
:1039B000238D060083C7C500E39607EAA30604002B
:1039C0006FF05FEA83260901B7340000930B000013
:1039D00003C3360213080000130B00009307000412
:1039E000130AF0259309F00F93840480930AF07F63
:1039F0009305AB011315080133866941B305B40083
:103A000013F7F7019388470063FA6B06636AFA06B7
:103A1000138C27006316070093070C00138C080013
:103A2000B387F60003C7170083C80700938B1B00FA
:103A300093178700B3E71701338797001317070120
:103A40003365F500135707016314080063F2EA02B7
:103A5000EFF01FC38326090163040502330BAB009B
:103A60001308000003C3360293070C006FF05FF8E1
:103A70001388070093070C006FF09FF76308080E88
:103A80009307F003230DF400130B1000330B6401B4
:103A9000230D0B00A306040083C7460013F777032A
:103AA0002306E40093F70701639C070A03C7D603C4
:103AB00083C5C60303C6E60383C7F603131787004F
:103AC0003367B700131606013366E6009397870144
:103AD00003C7B603B3E7C7009395870003C6A603E1
:103AE0003367B70093D78701135587019315870074
:103AF0009397870003C796033366B600B367F50054
:103B0000939787001355860183C586031316860095
:103B10003367C700B367F500135687019397870093
:103B20001317870033E7E500B367F6002320E400AE
:103B30002322F40083C7D60003C7C60093978700EB
:103B4000B3E7E7002315F40083C7F60003C7E600D8
:103B500093978700B3E7E7002314F4006FF0DFD6F4
:103B600013070000930700006FF05FFCE3100BF2F7
:103B70006FF01FF1930600006FF05FE3130101FF88
:103B8000232291009304050003550500232611000C
:103B900023248100630A0506938424001304000093
:103BA000EF70C00413150501135505011377F50FC8
:103BB00093571400B387E7001314F4003304F400A0
:103BC0001314040113540401135714009357850070
:103BD000938424001314F400B307F70003D5E4FF23
:103BE0003304F4001314040113540401E31A05FA16
:103BF000130504008320C1000324810083244100B5
:103C00001301010167800000130400001305040084
:103C10008320C1000324810083244100130101019A
:103C20006780000083477503834665030347550398
:103C300093978700B3E7D7009397870083464503A0
:103C4000B367F70093978700B3E7F60023A4F50066
:103C50000346D5030347C5038346E5038347F503BE
:103C6000131686003366E600939606010347B503F4
:103C7000B3E6C60093978701B3E7D7000346A503D1
:103C8000939687003367D70093D7870183469503C0
:103C90001358870193978700131787003366E60050
:103CA000B367F8009358860103488503939787000C
:103CB0001316860033E7C600B3E7F8009356870172
:103CC0009397870013178700B3E7F6003367E80080
:103CD00023A8E50023AAF5008347150223AE0500BB
:103CE00093F72700A383F50067800000130101FF0D
:103CF0002324810023229100232021012326110067
:103D00001304050003268503034515001309C403A6
:103D10009306100093050900EFF01F829304100032
:103D20006316050203268403832784020327040203
:103D300023020400B307F6409304050063F8E7008C
:103D400083463400930720006380F6028320C1007D
:103D5000032481001385040003290100832441000A
:103D60001301010167800000034514009306100051
:103D70003306E60093050900EFF00FFC6FF01FFD1E
:103D8000130101FD23229102232611022324810223
:103D900023202103232E310183474500930405008E
:103DA000639E070883A7C4019385E5FF13090000FC
:103DB0009387E7FF63FAF50003D5A400EF90903EE8
:103DC00003A90403330925019389C40323AC240305
:103DD000130600209305000013850900EFE05F94AF
:103DE00083D7A40013040000639807006F008002CB
:103DF000130414006370F40203C514003306890031
:103E00009306100093850900EFF00FF383D7A40009
:103E1000E30005FE3304F44033348000130504004E
:103E20008320C10203248102832441020329010269
:103E30008329C10113010103678000002326B1001B
:103E4000EFF0DFEA130410008325C100E30C05F452
:103E5000130504008320C10203248102832441024C
:103E6000032901028329C1011301010367800000B6
:103E7000130101FF23248100232611002322910036
:103E80008347450013040500639C070203470400B1
:103E9000930730006300F704034514001306000085
:103EA00093050000EFF04FED3335A0008320C100F3
:103EB0000324810083244100130101016780000075
:103EC000EFF0DFE2E31405FE034704009307300040
:103ED000E314F7FC0347540093071000E31EF7FABE
:103EE0009304C40313060020930500001385040007
:103EF000EFE01F8303278401832744010326440244
:103F000093035005034514009308200593061006FB
:103F10009305100413082007130616009352870018
:103F2000935F0701135F870193DE870013DE0701AC
:103F300013D38701230D74229303A0FA230FD40215
:103F4000A30FB4022301B422A301D422A30D74222F
:103F5000230E1403A30E140323000423A30004233D
:103F60002302E422A30254222303F423A303E42321
:103F70002304F422A304D4232305C423A305642229
:103F8000232CC4029306100093850400EFF0CFDACF
:103F9000A30204006FF05FF0130101FF23248100EE
:103FA00023229100232611008347450013040500B6
:103FB00093840500639007040345140093061000E2
:103FC000138604009305C403EFF00FD3631E0500AE
:103FD000232C94028320C100032481008324410008
:103FE0001301010167800000130510009304F0FF26
:103FF0006FF01FFEEFF09FCFE30005FC8320C100B0
:104000000324810083244100130101016780000023
:10401000130101FF23248100232611002322910094
:104020009307F0FF23020500232CF502130405007B
:104030006388F500EFF05FF693074000631E05020A
:104040008344B4238347A42393948400B3E4F4000B
:10405000B7B70000938757A56384F4088347C40368
:104060001307900E93F6D70F6384E6021307800EB2
:104070006380E702930730008320C100032481009E
:1040800083244100138507001301010167800000AC
:10409000834784040347740493978700B3E7E700DA
:1040A0001387F7FF3377F700E31607FC13070020A9
:1040B000834694046380E70AB7B70000938757A547
:1040C000E39AF4FA8320C1000324810093072000BF
:1040D000832441001385070013010101678000005C
:1040E000B7E500801306B000938585391305C40336
:1040F000EFE00FE593071000E30005F88347C403E2
:104100001307900E93F6D70F6386E6001307800E11
:10411000E39AE7FAB7E50080130680009385453AF5
:104120001305E408EFE0CFE16308050C834784043E
:104130000347740493978700B3E7E7001387F7FFFB
:104140003377F700E31007F8130700208346940441
:10415000E39AE7F6E38206F69387F6FFB3F6D70015
:10416000E39C06F48347B4040347A40493978700B1
:10417000B3E7E700E38207F48347C40413071000A2
:104180009387F7FFE36AF7F28347E4040347D40415
:1041900093978700B3E7E700E38007F283470405BE
:1041A0008346F4041307F00793978700B3E7D7001B
:1041B000636AF7028347F4058346E4050347D405A1
:1041C00093978700B3E7D700939787008346C4058A
:1041D000B367F70093978700B3E7F600370701004E
:1041E000E3ECE7EC83473405034724059397870006
:1041F000B3E7E700E38207EC930700006FF0DFE727
:10420000130101FD9385E5FF8327450323248102E4
:1042100013F77500130410002320210323267101D6
:1042200013D9350093DBC5003314E4002322910237
:10423000232E3101232C4101232A5101232861011E
:10424000232611029309050093040600138A060031
:10425000B38BFB001379F91F1374F40F930A10004A
:10426000130B002083A78903638A770193850B00D2
:1042700013850900EFF05FD26318050A3386290120
:104280008347C6033377F4003337E000B347F400C5
:10429000131414009384F4FF1374F40F630247059E
:1042A000230EF6022382590163840406E31C04FCF6
:1042B0001309190033862901630069078347C60380
:1042C000130410009384F4FF3377F4003337E000D5
:1042D000B347F400131414001374F40FE31247FDF2
:1042E000130520008320C10203248102832441029C
:1042F000032901028329C101032A8101832A410183
:10430000032B0101832BC10013010103678000000F
:10431000130500006FF01FFD938B1B0013041000AA
:10432000130900006FF01FF4130510006FF09FFBDE
:10433000130101FE232E1100232C8100232A91005A
:1043400023282101232631019307100063F0B716BB
:1043500003290500130410008327C90163F4F50A3B
:104360008347090013072000938405006384E71C3A
:10437000637AF70A93063000638CD7141306400063
:104380006392C7088327050103284501034675008A
:10439000B3E507016392051E631A06108327C50162
:1043A00063980722032789028327890393D5740022
:1043B000B385E5006388F50013050900EFF0DFBD64
:1043C000631E051C9397240093F7C71F1307C903A7
:1043D0003307F7008347370003462700834617005B
:1043E00093978700B3E7C7000344070093978700BC
:1043F000B3E7F60093978700B367F40013941700B0
:1044000013541400130504008320C1010324810107
:1044100083244101032901018329C1001301010201
:1044200067800000E39087FE13D41500832789027C
:104430003304B4000327890393559400B385F50032
:10444000638CE50013050900EFF01FB56318051430
:1044500083278902032789039309140093D59900C0
:104460001374F41F33048900B385F5000344C403B7
:104470006388E50013050900EFF01FB26310051211
:1044800093F9F91F330939018347C90393F51400E0
:1044900093978700B3E7870013D44700E39405F6AA
:1044A00013944701135444016FF0DFF51304100017
:1044B000130504008320C1010324810183244101E9
:1044C000032901018329C100130101026780000053
:1044D000032789028327890393D57500B385E500F7
:1044E0006388F50013050900EFF01FAB6318050A98
:1044F000939524001309C90393F5C51F3309B90027
:1045000083473900834629000347190093978700A2
:10451000B3E7D7000344090093978700B367F70018
:1045200093978700B367F400139447001354440033
:104530006FF05FED032789028327890393D58500F8
:10454000B385E5006388F50013050900EFF0DFA4EB
:1045500063160504939514001309C90393F5E51F29
:104560003309B90003441900834709001314840078
:104570003364F4006FF01FE983258500E38E05E0C6
:10458000B389B4406300E602E31AD6E083278501CD
:10459000E3F6F9E0138414006FF0DFE61304F0FF94
:1045A0006FF05FE61387F7FFB337F7001308F8FFE4
:1045B000B38707018355A900939777011357970095
:1045C00033E5E700EF90C040E36E35E3E394A9FCE8
:1045D000370400801344F4FF6FF0DFE2130101FDA4
:1045E000232E310183290500232291022320210358
:1045F0002326110223248102232C4101232A510165
:10460000232861012326710103C709009306400096
:104610001309050093840500B70720006300D70A3B
:1046200063F4F40693FAF40163900A060324890004
:10463000232899026308040803DAA900131A9A00D0
:1046400063EE440D130BF0FF930B10006F0040015D
:1046500063FCAB0283A7C9016378F50263E2440DF2
:104660009305040013050900EFF09FCC1304050027
:10467000B3844441E31E65FD930A10006F000001FE
:10468000232C0902232A8902930A20008320C102D5
:104690000324810213850A008324410203290102B5
:1046A0008329C101032A8101832A4101032B0101CE
:1046B000832BC1001301010367800000B7070010BE
:1046C0006FF01FF69307200063E0E70483D78900AB
:1046D00013D75400E37AF7FA03A5C902232CA902E1
:1046E000232A8902E30205FA93D794009389C90328
:1046F00093F4F41F3385A700B3849900232CA902F7
:10470000232E99026FF09FF883A7C902A303090023
:10471000E38E07FA138407006FF01FF283A7C90125
:104720009305E4FF9387E7FFE3FCF5F403D5A900C5
:10473000EF90402783A709033305F500232CA90236
:104740006FF01FFA130101FE232C8100232A910030
:1047500023282101232E1100232631012324410186
:10476000232251018347050013072000130405008D
:104770009384050013090600638AE7166360F70C4B
:10478000130710006390E71693D9150003278502DD
:10479000B389B9008327850393D59900B385E500D4
:1047A0006388F500EFF04FFF13070500631405065B
:1047B000138A1900930AC40393F9F91F93F41400A0
:1047C000B3893A0193559A00638E041803C7090010
:1047D000B7160000938606FF931749001377F7007A
:1047E000B3F7D700B367F7002380F90003278402EB
:1047F00083278403930610002302D400B385E500C9
:104800006380F51413050400EFF00FF9130705009A
:10481000630805128320C10103248101832441011F
:10482000032901018329C100032A8100832A410051
:104830001305070013010102678000009306400082
:1048400013072000E3E8F6FC83268502032785038F
:1048500093D57500B385D500638AE500EFF0CFF3FB
:1048600013070500E31805FA834704009394240016
:104870001307C40393F4C41F93064000B3049700C6
:10488000638CD70203C7340083C6240083C7140097
:10489000131787003367D70013178700B3E7E700C4
:1048A0001319490093978700370600F01359490000
:1048B000B3F7C70033E9270113570901935789015B
:1048C000935689002381E400A381F400238024010E
:1048D000A380D400930710002302F4001307000004
:1048E0006FF05FF3130720006FF0DFF203278502FC
:1048F0008327850393D58500B385E5006388F5009C
:10490000EFF08FE913070500E31605F09394140008
:10491000131709019307C4031357070193F4E41F06
:10492000B384970093578700A380F4002380240169
:10493000930710002302F400130700006FF09FEDAF
:10494000137AFA1F13594900338A4A011379F90F70
:1049500023002A01930710002302F400130700002C
:104960006FF05FEB238029010327840283278403F0
:10497000930610002302D400B385E500638AF50096
:1049800013050400EFF04FE113070500E31405E8F9
:10499000137AFA1F338A4A0183470A0013598900A0
:1049A0001379F90093F707FF33E927016FF05FFAF6
:1049B000130101FD232481012326110223248102F6
:1049C0002322910223202103232E3101232C410194
:1049D000232A510123286101232671019307100026
:1049E000032C050063FEB70C8327CC01138405005C
:1049F00063F8F50C13090500930906006316060A0F
:104A0000930B0400130A1000130BF0FF930A4000ED
:104A10009305040013050900EFF09F91930405002E
:104A2000630A0506630E45096304651383470C009A
:104A30006382570363768A088327CC016372F40884
:104A4000130600009305040013050C00EFF09FCF40
:104A5000631A05060327CC0183278C019306E7FF21
:104A600063FCD70083465C0093871700232CFC006F
:104A700093E71600A302FC001304140063089400DB
:104A800083470C00638C5709938B04001384040044
:104A9000E3E0E4F803470C00930740006302F70AE1
:104AA000130500006F00000283460C00130740004E
:104AB000638EE604130710006374370163ECF90298
:104AC000130520008320C1020324810283244102B4
:104AD000032901028329C101032A8101832A41019B
:104AE000032B0101832BC100032C8100130101035F
:104AF000678000001306F0FF9385090013050C0082
:104B0000EFF05FC4E30E05EE6FF0DFFB8346750048
:104B100013072000E390E6FA6FF09FEE9306000083
:104B20003306744193850B0013050C00EFF04FED35
:104B3000E31A05F80327CC01938B04006FF01FF5EF
:104B4000639C0900A3030900130500006FF09FF7A1
:104B5000130510006FF01FF7834779006390070477
:104B600003248900638A890493041000130AF0FF68
:104B70006F000001E30E45FDE394A7F2638EF90296
:104B80009305040013050900EFF08FFA9307140052
:104B900013840700E3E0A4FE6FF09FF213073000D8
:104BA000E390E7F083278900E3ECF9EE032789011E
:104BB000B387E700E3E637EF93072000A303F9008C
:104BC000130500006FF01FF083A70500638E070A2E
:104BD000130101FE232C8100232A910023282101A7
:104BE0002326310123244101232E110013890600BD
:104BF00093040600130A05001384050093091000AE
:104C0000B386F440138716009305070013060900C6
:104C100063F4F9001386260063F6E90403250A000D
:104C20008327C5016370F704EFF0DFB1631C050053
:104C3000832704009387F7FF2320F400E39207FC07
:104C4000130500008320C101032481018324410155
:104C5000032901018329C100032A810013010102F4
:104C6000678000008320C101032481018324410166
:104C7000032901018329C100032A810013052000B3
:104C80001301010267800000130500006780000027
:104C9000130101FE232A9100832485012328210189
:104CA000232E1100232C8100232631011309050036
:104CB000832785006382040813071000637EF704CE
:104CC000032505000327C50163F8E70413841700D3
:104CD000130604009305F4FFB384970093091000B2
:104CE000EFF05FA6631C05026308940463F6890273
:104CF00003250900130714008327C501637EF40010
:104D000013040700130604009305F4FFEFF09FA3BC
:104D1000E30C05FC6F008000130520008320C10117
:104D20000324810183244101032901018329C10056
:104D30001301010267800000A303090013050000AE
:104D40006FF0DFFD130101FC232A910223282103C8
:104D5000232E1102232C8102232631032324410315
:104D60002322510323206103232E7101232C81016F
:104D7000232A910123A0050013890500930406004E
:104D8000EFE01F826344053613152500938781C722
:104D90003305F50003240500630E04342320890045
:104DA0008347040093F4E40F03451400638E070463
:104DB000EFE00FEE13771500930705006314070467
:104DC000130500006386040093F747006398072EDD
:104DD0008320C103032481038324410303290103A6
:104DE0008329C102032A8102832A4102032B010283
:104DF000832BC101032C8101832C41011301010488
:104E0000678000000345140023000400EFE0CFE9B1
:104E1000137715009307050013053000E31A07FA0E
:104E20006386040093F74700639A07289305000000
:104E300013050400EFF0CF9D930720006300F520D9
:104E4000930740006308F5269307100063ECA7283A
:104E50009307100003298403034774046300F52AB1
:104E600083478404930600209397870033E7E70085
:104E700013170701135707416316D72683453405D7
:104E80008347240593958500B3E5F50093840500D9
:104E9000638405280345C4042320940213071000EB
:104EA0009307F5FFA301A40093F7F70F636CF722B4
:104EB000834A940493970A0193D707012315F400BA
:104EC000638207229387FAFFB3F75701639C072099
:104ED000034AE4048347D404131A8A00336AFA00AD
:104EE000131A0A01135A0A41131C0A01135C0C011C
:104EF000231484019377FC006396071E83470405FF
:104F00000347F40493978700B3E7E700938907000A
:104F1000639607020347F4058347E4058349D405F4
:104F2000131787003367F700131787008347C405FB
:104F3000B3E9E90093998900B3E93701034BB4045D
:104F40008347A404131B8B00336BFB00630C0B180B
:104F500093850400935B4C00EF80D024B38B6B01EE
:104F6000B38BAB00930C050063EE7917B3897941DD
:104F700093850A0013850900EF80902563E4591793
:104F8000B7070010938757FF63EEA714B707010018
:104F9000938757FF13072500330B2B01B30B7901C0
:104FA00063EAA73EB7170000938757FF232EE4005C
:104FB00023222403232464032328740363ECA764BB
:104FC00063020C1293171700B387E700338B6C0151
:104FD00093D717001377170023266403B387E700DE
:104FE000930610009387F71F93D7970063ECF40E96
:104FF0009307F0FF232CF400232AF400930700F812
:10500000A302F40093F6F60F83D741C7138781807C
:10501000938717009397070193D7070193050720FC
:105020002300D400239AF1C62313F4002326E400BE
:105030002328B400130500006FF09FD993040100EA
:105040001307242013052424938504008347370085
:10505000034627008346170093978700B3E7C700EE
:105060009397870003460700B3E7F60093978700FE
:10507000B367F60023A0F5001307070193854500E9
:10508000E316E5FC138904019309100083A50400CD
:105090001305300093844400638805001305040061
:1050A000EFE01FF7E3F6A9DAE31299FE9307400059
:1050B000631AF502130510006FF09FD11305A000CD
:1050C0006FF01FD18347540A8346440A1307001028
:1050D00093978700B3E7D7009397070193D70741CA
:1050E0006382E7061305D0006FF09FCE1305B00072
:1050F0006FF01FCE1305C0006FF09FCD930784049F
:105100009306C407E31007FEE38ED7FA03C7070030
:10511000938717006FF01FFF8347340683462406EA
:105120000347140693978700B3E7D7009397870048
:1051300083450406B367F70093978700B3E4F5004F
:105140006FF05FD50347840A93079000E31CF7F8DC
:1051500003479408034684088346A4088347B40899
:10516000131787003367C70093960601B3E6E6007E
:105170009397870103477408B3E7D7009396870096
:10518000034664083367D7009315870083465408A5
:105190003366B60093D787019355870113158600B0
:1051A0009397870003474408B3E6A600B3E7F500EA
:1051B0001356860193958600939787003367B7004F
:1051C000B367F60093D6860193978700B30927014A
:1051D000B3E7F60033B7E900B307F700E39407F04D
:1051E00083473409834624090347140993978700AA
:1051F000B3E7D7009397870083460409B367F700A6
:105200000347A40A93978700B3E7F6002320F4022C
:10521000A301E40093071000E316F7EC8347940A18
:105220003317F7009317070193D707012315F400ED
:10523000E38A07EA8347B4090346A409834694092D
:1052400093978700B3E7C700939787008345840946
:10525000B3E7F60093978700B3E5F500B707008042
:1052600093C7D7FFE3E0B7E8834674098347F408A0
:10527000834864090346E408034854090345D408F5
:105280009396860093978700B3E61601B3E7C700AD
:10529000939686000346C408939787008344440985
:1052A000B366D800B367F50093968600939787009E
:1052B000B3E4D400B367F600B384240193862500D9
:1052C000B38727011315070123289402232ED40046
:1052D000232224032324F40213550501EF80806C5C
:1052E000B3049500E3E0A4E0E3EE99DE8347F4091C
:1052F0008346E4090347D40993978700B3E7D700AF
:10530000939787008346C409B367F7009397870094
:10531000B3E7F6002326F40293040000130900000B
:1053200093091008639C04040357A4009307090021
:1053300013050700E378E9DA0327C4028326C401D2
:105340001307E7FF9386E6FF93050700637AD7000C
:10535000EF80406583270403B307F500B387270177
:105360000327840393850700130504006306F700F1
:10537000EFE09FC2E31005D413091900B3079400AE
:1053800083C7C70313870402638A371B9374F71F0D
:105390006FF05FF98347740683466406232EE400AA
:1053A00093978700B3E7D700B367FA009397070195
:1053B00023222403232464032328740393D707415F
:1053C000E39207D28347B4060346A40683469406B5
:1053D00093978700B3E7C700939787000346840637
:1053E000B3E7F6009396870093172700B366D600BD
:1053F0009387F71F2326D40293D79700E3E4F4CED4
:105400008347D4068346C4061307F0FF93978700AB
:10541000B3E7D700232CE400232AE4009397070185
:10542000130700F8A302E40093D707411307100005
:105430006386E700930630006FF01FBD93051900E7
:1054400013050400EFE05FB5E31605FE8347B423C0
:105450000347A423A302040093978700B3E7E70060
:105460009397070137B7FFFF93D70741130757A556
:10547000E392E7FC8347F4038346E4030347D40342
:1054800093978700B3E7D700939787008346C403B9
:10549000B367F7009397870033E7F600B75761418A
:1054A00093872725E318F7F883473422834624227D
:1054B0000347142293978700B3E7D7009397870099
:1054C00083460422B367F7009397870033E7F6001B
:1054D000B777416193872727E31EF7F403477422C8
:1054E0008347B422034564228345A4228346942241
:1054F0001317870003465422939787003367A7004A
:10550000B3E7B7001317870003454422939787003A
:1055100083458422B3E7F6003367E600131787005C
:10552000939787003367E500B3E7F500232CE40089
:10553000232AF400930630006FF01FAD1309C40353
:1055400093874401B307F90003C7370003C6270058
:1055500083C61700131787003367C70083C9070086
:1055600013178700B3E7E60093978700B3E9F900C4
:1055700093071000E3F837B78327C401E3F4F9B6C3
:105580000355A4009385E9FF9304F0FFEF80804169
:1055900083270403B307F500232AF4026F00800079
:1055A000E392E9B4832684020327840393D7790026
:1055B000B387D70013050400938507006386E700CF
:1055C000EFE09F9DE31805AE93F7F9079397270047
:1055D000B307F90003C7370003C6270083C61700C7
:1055E000131787003367C7001317870083C70700A7
:1055F00033E7E6001317870033E7E70093891900C4
:10560000E31097FA232C9400232A94009306400079
:105610006FF09F9FE3080CAC338B6C01232664036F
:1056200093171700930620006FF0DF9B130101FD15
:1056300023202103232E3101232C41012326110293
:105640002324810223229102232A5101232861016C
:10565000232671011309050093890500032A05001B
:1056600063940512832A4A01639E0A0C930A100070
:1056700083278A016380070E0328CA0183460A0034
:105680001307400093070800638CE612638C3A23EB
:1056900013840A0093041000130BF0FF6F00400105
:1056A000630C9510630C65216306540B8327CA01B4
:1056B00013041400130509006366F40063FC540925
:1056C0001304200093050400EFE09FC6E31A05FCD5
:1056D0009304100063F2840E8327CA01637EF40CE6
:1056E0001306F0FF9305040013050A00EFF08F8501
:1056F0006310050C6382090263F0340D8327CA012D
:1057000063FCF90A130604009385090013050A00D7
:10571000EFF04F83631E05088327CA0103278A0120
:10572000232A8A009387E7FF63E6E7001307F7FF62
:10573000232CEA0083475A0093E71700A302FA00DC
:105740006F0080018327CA01E3F2FAF283278A01FE
:10575000E39407F213040000130504008320C10240
:105760000324810283244102032901028329C10108
:10577000032A8101832A4101032B0101832BC100EC
:105780001301010367800000EFE09FBA9307100048
:105790001304050063F2A7029307F0FF6300F512FC
:1057A0008327CA01938A0900E374F5EC6FF0DFFAEE
:1057B000930710006304F510130410006FF0DFF975
:1057C0009384EAFF9307E8FFB3B7F400B307F04010
:1057D000B3F4F40013840400930B1000130B0020A7
:1057E00003274A0383278A039355C400B385E50042
:1057F000638AF50013050A00EFE00FFA6310050C49
:105800000328CA019356340093F6F61F3307DA00D3
:10581000937774008345C703B397FB0093F7F70FA3
:105820001305E8FF1307140033F6B7006366A704F7
:10583000631006089307D0FF13042400E3EEE7F09B
:1058400093061000130610009305040013050A00C8
:10585000EFE01F9B93072000E300F5F6130710000D
:10586000630EE5046398090AA303F900E30605EA59
:10587000130410006FF05FEE9397170093F7F70F84
:10588000E30A06FAE30897EC6386070013040700AF
:105890006FF05FF993861600B307DA00638A660F2C
:1058A00083C5C70313040700930710006FF09FF729
:1058B000E38204EA130400006FF09FF21304F0FF88
:1058C0006FF09FE913841A0063640401130420003D
:1058D0009305040013050900EFE09FA513071000CE
:1058E000E30CE5EC9307F0FFE30AF5FC630E05001B
:1058F00083264A018327CA01E37CD7D8E3FAF6D886
:10590000938A06006FF0DFD8E31404DC8327CA0112
:105910006FF01FD803477900630CF70493871900D1
:105920000327C901638A87026316070093071000E3
:10593000232EF90093060400138609009305C9017C
:1059400013050900EFF04FA8E31405E693071000D4
:10595000232EF9006FF05FDC93072000630407003B
:1059600093071700232EF900E30805DA6FF05FF0C4
:1059700093871A00E38C87EE832789001307300092
:10598000A303E900B38AFA40232C59016FF01FF9F1
:10599000130407006FF0DFE4130101FE232A9100D6
:1059A00083240500232C8100232821012322510177
:1059B000232E1100232631012324410123206101DC
:1059C0000329050383C604001307400013040500E0
:1059D000938A050013090902B7072000638CE610BB
:1059E000636AF902232C0402130540008320C101DD
:1059F0000324810183244101032901018329C1007A
:105A0000032A8100832A4100032B010013010102B4
:105A10006780000083278403638C07109379F91F44
:105A2000639E090A8325440393871700232CF402FD
:105A30006386050C83D7A400135A99009387F7FF58
:105A400033FA4701631C0A0813050400EFE05F8E78
:105A500093071000130B050063F8A70C9307F0FFE2
:105A60006300F50C83A7C4016368F504E38C0AF6B0
:105A70008325440313050400EFF05FBB130B0500FF
:105A800013057000E3040BF693071000630EFB0888
:105A90009307F0FF6306FB0893050B0013850400D2
:105AA000EFE00FAE631E05068347740093E74700DF
:105AB000A303F40083A7C401232A64039305EBFF27
:105AC0009387E7FF63FAF50003D5A400EF70906DAC
:105AD00003AA0403330A4501232C44039384C4031B
